:030000000204E017
:10000300C00078B10000D8FCD00022C000C0017944
:100013002D78A6D8FED9FADAF6D001D00022D293F1
:10002300120003C29322A2E792B5A2E692B4A2E51C
:1000330092B3A2E492B2120021120003A2E392B59A
:10004300A2E292B4A2E192B3A2E092B21200212200
:10005300D291020029C291020029C293C292743341
:100063001200587433120058743212005874281254
:100073000058740C1200587401120058C0027A021E
:1000830012000ED00222E4936006120053A380F6FE
:100093002244404480020058C0E0E8C4540F443076
:0E00A300120053E8540F4430120053D0E022F4
:1000B100C0E0C0D0C000C001C002E4F538F539F598
:1000C1003AF53BF53C7A20E533A2E779047830E64E
:1000D10033F608D9FA79057838E636D4F608D9F92D
:1000E100DAE5D002D001D000D0D0D0E022C0E0C00B
:1000F100D0C000C001C002E4F538F539F53AF53B4E
:10010100F53C7A20E533A2E779047830E633F60846
:10011100D9FA79057838C0D0E6243320E70224D013
:1001210020E30224FDD0D033F608D9EADAD6D00292
:10013100D001D000D0D0D0E022C0E0C0D0C000C0FB
:1001410001C0027A207905C3783CE613C0D030E7BC
:100151000224D030E30224FDF618D0D0D9EC790482
:100161007833E613F618D9FADADBD002D001D000E1
:10017100D0D0D0E022C0E0C0D0E5302534F530E564
:10018100313535F531E5323536F532E5333537F58B
:1001910033D0D0D0E022C0E0C0D0C3E5309534F5F3
:1001A10030E5319535F531E5329536F532E5339562
:1001B10037F533D0D0D0E022C0E0C0D0C3E53095D0
:1001C10034E5319535E5329536E53395379200D0F2
:1001D100D0D0E022C0E0C0D0C3E5349530E53595FC
:1001E10031E5369532E53795339200D0D0D0E02213
:1001F100C0E0C0D0C200C3E53495307014E5359538
:1002010031700EE53695327008E53795337002D2BC
:1002110000D0D0D0E0221201F12000030201D5224A
:100221001201F12000030201B922C0E0C0F0C0D0E8
:10023100C000C001C002C003E5308534F0A4F8A9B4
:10024100F0E5318534F0A429F9E435F0FAE530859B
:1002510035F0A429F9E5F03AFAE433FBE5328534C7
:10026100F0A42AFAE5F03BFBE5318535F0A42AFA42
:10027100E5F03BFBE5308536F0A42AFAE5F03BFBDF
:10028100E5338534F0A42BFBE5328535F0A42BFB57
:10029100E5318536F0A42BFBE5308537F0A42BFB47
:1002A1008B338A3289318830D003D002D001D0001B
:1002B100D0D0D0F0D0E022C0E0C0D0C000C001C09A
:1002C10002C003C0047C20E4F8F9FAFBC3E5303333
:1002D100F530E53133F531E53233F532E53333F5D8
:1002E10033E833F8E933F9EA33FAEB33FBC3E89542
:1002F10034E99535EA9536EB95374013E89534F8AE
:10030100E99535F9EA9536FAEB9537FB433001DC8F
:10031100BBD004D003D002D001D000D0D0D0E02295
:10032100C0E0E8C4540F443012045AE8540F44307A
:1003310012045AD0E022C0E0740114120094D0E0FB
:10034100C000A85D12009BD000E55D2401C0E074EF
:100351000114120094D0E0C000F812009BD000B448
:1003610004047401F55DC0E0740814120094D0E037
:10037100E55DB40109C0E07443120053D0E0B4025A
:1003810009C0E07446120053D0E0B40309C0E07420
:100391004B120053D0E0020514C0E07407141200A0
:1003A10094D0E0C000A83C12009BD000C000A83B44
:1003B10012009BD000C000A83A12009BD000C000E0
:1003C100A83912009BD000C000A83812009BD000B1
:1003D10022853D30853E3175320075330075349A82
:1003E10075350175360075370012022B7534FF75AE
:1003F10035037536007537001202B875341175353D
:10040100017536007537001201971200B122200DD7
:100411000A0054656D70657261747572653A0D0AF2
:100421000054656D70657261747572653A001203EE
:10043100D2C000A838120321D00090040F12046228
:100441002279DE78A6D8FED9FA438780759852754D
:100451009B00759AF4759B1E223099FDC299F599FE
:1004610022E493600612045AA380F622D2A2C2A308
:100471002279007A08E833F892A1D2A3A2A2E93343
:10048100F9C2A3DAF022C2A07801120472788012B4
:100491000472E95403F53E7855120472893DD2A0E5
:1004A1001204BB12042FC0E0740514120094D0E0B2
:1004B100C000A83812009BD00022C0027AFA1200B4
:1004C1000ED002C0027AFA12000ED002C0027AFAED
:1004D10012000ED002C0027AFA12000ED00222756A
:1004E100817F12005D12044212046D75E60075E70A
:1004F10000755D01C0E0740114120096D0E0C08364
:10050100C082C0E0900422120089D0E0D082D08362
:10051100120367208222C0027A3212000ED002201A
:100521008216C0E0740114120094D0E0C0E074217E
:0D053100120053D0E012033712048780D669
:00000001FF
